:020000040000fa
:080000000002040000000000f2
:020000040000fa
:04000800d40300001d
:020000040000fa
:04000c00d403000019
:020000040000fa
:04001000d403000015
:020000040000fa
:04001400d403000011
:020000040000fa
:04001800d40300000d
:020000040000fa
:04001c00d403000009
:020000040000fa
:04002000d403000005
:020000040000fa
:04002400d403000001
:020000040000fa
:04002800d4030000fd
:020000040000fa
:04002c00d4030000f9
:020000040000fa
:04003000d4030000f5
:020000040000fa
:0400340002030000c3
:020000040000fa
:04003800d4030000ed
:020000040000fa
:04003c00d4030000e9
:020000040000fa
:04004000d4030000e5
:020000040000fa
:04004400d4030000e1
:020000040000fa
:04004800fa020000b8
:020000040000fa
:04004c00d4030000d9
:020000040000fa
:04005000d4030000d5
:020000040000fa
:040054009003000015
:020000040000fa
:04005800660300003b
:020000040000fa
:04005c003803000065
:020000040000fa
:04006000d4030000c5
:020000040000fa
:04006400d4030000c1
:020000040000fa
:04006800d4030000bd
:020000040000fa
:04006c00d4030000b9
:020000040000fa
:04007000d4030000b5
:020000040000fa
:04007400d4030000b1
:020000040000fa
:04007800d4030000ad
:020000040000fa
:04007c00d4030000a9
:020000040000fa
:04008000d4030000a5
:020000040000fa
:04008400d4030000a1
:020000040000fa
:04008800d40300009d
:020000040000fa
:04008c00d403000099
:020000040000fa
:04009000d403000095
:020000040000fa
:040094000a0300005b
:020000040000fa
:04009800d40300008d
:020000040000fa
:04009c00d403000089
:020000040000fa
:0400a000d403000085
:020000040000fa
:0400a400d403000081
:020000040000fa
:0400a800d40300007d
:020000040000fa
:0400ac00d403000079
:020000040000fa
:0400b000d403000075
:020000040000fa
:0400b400d403000071
:020000040000fa
:0400b800d40300006d
:020000040000fa
:0400bc00d403000069
:020000040000fa
:0400c000d403000065
:020000040000fa
:0400c400d403000061
:020000040000fa
:0400c800d40300005d
:020000040000fa
:0400cc00d403000059
:020000040000fa
:0400d000d403000055
:020000040000fa
:0400d400d403000051
:020000040000fa
:0400d800d40300004d
:020000040000fa
:0400dc00d403000049
:020000040000fa
:0400e000d403000045
:020000040000fa
:0400e400d403000041
:020000040000fa
:0400e800d40300003d
:020000040000fa
:0400ec00d403000039
:020000040000fa
:0400f000d403000035
:020000040000fa
:0400f400d403000031
:020000040000fa
:0400f800d40300002d
:020000040000fa
:0400fc00d403000029
:020000040000fa
:04010000d403000024
:020000040000fa
:04010400d403000020
:020000040000fa
:04010800d40300001c
:020000040000fa
:04010c00d403000018
:020000040000fa
:04011000d403000014
:020000040000fa
:04011400d403000010
:020000040000fa
:04011800d40300000c
:020000040000fa
:04011c00d403000008
:020000040000fa
:04012000d403000004
:020000040000fa
:04012400d403000000
:020000040000fa
:04012800d4030000fc
:020000040000fa
:04012c00d4030000f8
:020000040000fa
:04013000d4030000f4
:020000040000fa
:04013400d4030000f0
:020000040000fa
:04013800d4030000ec
:020000040000fa
:04013c00d4030000e8
:020000040000fa
:04014000d4030000e4
:020000040000fa
:04014400d4030000e0
:020000040000fa
:04014800d4030000dc
:020000040000fa
:04014c00d4030000d8
:020000040000fa
:04015000d4030000d4
:020000040000fa
:04015400d4030000d0
:020000040000fa
:04015800d4030000cc
:020000040000fa
:04015c00d4030000c8
:020000040000fa
:04016000d4030000c4
:020000040000fa
:04016400d4030000c0
:020000040000fa
:04016800d4030000bc
:020000040000fa
:04016c00d4030000b8
:020000040000fa
:04017000d4030000b4
:020000040000fa
:04017400d4030000b0
:020000040000fa
:04017800d4030000ac
:020000040000fa
:04017c00d4030000a8
:020000040000fa
:04018000d4030000a4
:020000040000fa
:04018400d4030000a0
:020000040000fa
:04018800d40300009c
:020000040000fa
:04018c00d403000098
:020000040000fa
:04019000d403000094
:020000040000fa
:04019400d403000090
:020000040000fa
:04019800d40300008c
:020000040000fa
:04019c00d403000088
:020000040000fa
:0401a000d403000084
:020000040000fa
:0401a400d403000080
:020000040000fa
:0401a800d40300007c
:020000040000fa
:0401ac00d403000078
:020000040000fa
:0401b000d403000074
:020000040000fa
:0401b400d403000070
:020000040000fa
:0401b800d40300006c
:020000040000fa
:0401bc00d403000068
:020000040000fa
:0401c000d403000064
:020000040000fa
:0401c400d403000060
:020000040000fa
:0401c800d40300005c
:020000040000fa
:0401cc00d403000058
:020000040000fa
:0401d000d403000054
:020000040000fa
:0401d400d403000050
:020000040000fa
:0401d800d40300004c
:020000040000fa
:0401dc00d403000048
:020000040000fa
:0401e000d403000044
:020000040000fa
:0401e400d403000040
:020000040000fa
:0401e800d40300003c
:020000040000fa
:0401ec00d403000038
:020000040000fa
:0401f000d403000034
:020000040000fa
:0401f400d403000030
:020000040000fa
:0401f800d40300002c
:020000040000fa
:0401fc00d403000028
:020000040000fa
:04020000d403000023
:020000040000fa
:04020400d40300001f
:020000040000fa
:04020800d40300001b
:020000040000fa
:04020c00d403000017
:020000040000fa
:04021000d403000013
:020000040000fa
:04021400d40300000f
:020000040000fa
:04021800d40300000b
:020000040000fa
:04021c00d403000007
:020000040000fa
:04022000d403000003
:020000040000fa
:04022400d4030000ff
:020000040000fa
:04022800d4030000fb
:020000040000fa
:04022c00d4030000f7
:020000040000fa
:04023000d4030000f3
:020000040000fa
:04023400d4030000ef
:020000040000fa
:04023800d4030000eb
:020000040000fa
:04023c00d4030000e7
:020000040000fa
:04024000d4030000e3
:020000040000fa
:04024400d4030000df
:020000040000fa
:04024800d4030000db
:020000040000fa
:04024c00d4030000d7
:020000040000fa
:04025000d4030000d3
:020000040000fa
:04025400d4030000cf
:020000040000fa
:04025800d4030000cb
:020000040000fa
:04025c00d4030000c7
:020000040000fa
:04026000d4030000c3
:020000040000fa
:04026400d4030000bf
:020000040000fa
:04026800d4030000bb
:020000040000fa
:04026c00d4030000b7
:020000040000fa
:04027000d4030000b3
:020000040000fa
:04027400d4030000af
:020000040000fa
:04027800d4030000ab
:020000040000fa
:04027c00d4030000a7
:020000040000fa
:04028000d4030000a3
:020000040000fa
:100400006f1421000eff2c000e0188000000000078
:10041000000020000000e000020032000001200087
:100420002002880014000700e10007000000e0003f
:1004300003003a0060502100010020000200370054
:100440000000200001002000810f70000100320038
:100450000f000700000020000000e0000200320052
:10046000000002000000000066070200000000001b
:100470000040da000000fe00200020000000e00044
:1004800002003200100020009001880000000600e9
:10049000a1028800800478000000eb001f003700f4
:1004a000e284440054a0b4009905ba00e2844400f8
:1004b00054a0b4009906ba00e284440054a0b400e9
:1004c0000006eb00476fde00fd07b200ae018800ba
:1004d000636ce10003003a000ad801000000eb0061
:1004e0000e003700606ce10008003a00004deb00a0
:1004f0000a05e800020039003420ec000af0a000f0
:100500008b05e900f9ff3e00040037006168e10057
:10051000010032000086eb000b00070019c7ba008b
:100520000e04e0001905ba0003003a000a00e000da
:10053000dbff3a0000000600fe07b200ae028800b2
:100540008a047800f5ff37000cd0a300e20f4d00bd
:100550001c00390089027800354dba000a05e80010
:10056000020039003420ec000af0a0008b05e900fd
:100570000f003200254dba000a05e80002003900dc
:100580003420ec000af0a0008b05e90008003200de
:100590000c00e0000600320015cdba000a05e800a4
:1005a000020039003420ec000af0a0008b05e900bd
:1005b0008984e80054a0b4000b00e000e2ff3a0098
:1005c000000006009902ba00055d78008b05e9007d
:1005d000f7ff3200c82ade00055d78008b05e900d0
:1005e000f3ff32000c00e000f1ff320019ddba0029
:1005f000eeff37000000fa000108a9000080fa00b1
:10060000004006000000fa000068a9000080fa001f
:10061000004006003600f800809fbe00829fbe00aa
:10062000849fbe00869fbe000000fa000368a900f8
:10063000608080007180800061004000e0804800a0
:1006400060808800718088003c080700ec02070089
:10065000650607000080fa004f03be004f02be008f
:100660004f01be004f00be003600f90000400600fa
:10067000809fbe000000fa0001a8a90001188000b8
:1006800020002100010878001118800020002100be
:1006900011009800211880002000210021009800fe
:1006a000311880002000210031009800411880009e
:1006b000200021004100980010c0b3000af0b700ec
:1006c0000080fa004f00be00004006003600f8002f
:1006d000809fbe00829fbe00849fbe00869fbe009a
:1006e0000000fa000188a900a180800090808000ad
:1006f000808f500002003200ba0707000100370067
:100700001670ef000080fa004f03be004f02be00db
:100710004f01be004f00be003600f9000040060049
:100720003600f800809fbe00829fbe00849fbe00fe
:10073000869fbe000000fa000168a9001011800029
:10074000640060000000e000010032002242a900c5
:1007500010118000620060000000e000060032001e
:100760002222a900050037003011800000407800e7
:10077000020807000100370000000000101180008f
:10078000610060000000e000f7ff3a000080fa001e
:100790004f03be004f02be004f01be004f00be001f
:1007a0003600f900004006000040da000000fe00bc
:1007b0000000050003f0a200889fbe008a9fbe00d3
:1007c0008c1f78001b010700220133006450e100f8
:1007d0004f0032006420e1005200320003826c00be
:1007e00007003b000905d0000306d000820f54002b
:1007f0000c065d0002003900020032008901780019
:10080000030678008582550004003d000003fd00ca
:100810008103fd008502ea008b854200840f72008f
:1008200002003b0060001000e08018006011b8007a
:100830000005eb007a28e1000a0039000600780084
:10084000c75ddd00f707b200878075002d00370017
:10085000828171000a017800610560008180d10009
:100860000080d3008502e900f9ff3b000604400048
:100870008784480002003b0060041400e0841c00f0
:100880000988a300070032008a817100828171000b
:10089000610164008904d1000884d3008b05e8005d
:1008a000170037000978a30013003a000b00e0009e
:1008b000130034008b05e9000804440089844c00cf
:1008c0000a4474000978a3000d003a000b00e00010
:1008d000070034008b05e9000804440089844c00bb
:1008e00001003a000b0020000978a300f7ff320056
:1008f0000001eb0002003700828171000a017800dc
:10090000910007000cf0a70001f0a000da0037000a
:100910006420e10002003a00838f6c00da003300ab
:100920000801be000200be00d3003700889fbe0051
:100930008a9fbe008c1f7800be000700c5003300f0
:1009400003866c006450e1002e0032006420e10058
:10095000330032006150e1002f0032006120e100dd
:100960003100320085855500eb07b00009002000fa
:1009700008042000050037000804440089844c0066
:100980000a0031000603430087834b000001530037
:1009900081815b00f8ff33000203be000800a00065
:1009a0000804440089844c00f6ff3900c639dd0094
:1009b0008301730001003200130020008904d1007c
:1009c0000884d3000998a300050032000800a7009e
:1009d0000300a0008904d1000884d3008b05e8003f
:1009e0008904d1000884d3000001eb000281d20009
:1009f0005500070001f0a1000cf0a70001f0a000d5
:100a00009d0037006420e1009f0032000801be0015
:100a10000200be00f7ff37006120e1009a003200bb
:100a20006000b800f3ff37000000200001f8270045
:100a3000f0ff370014002000ca003700f4ff2f0039
:100a4000c80037000001be00650007000470a70061
:100a500003f0a1006509b100160032000d00350059
:100a60006828e10006003500f0ff2f00f1ff2700a5
:100a70000300e00013003b00010028000000050017
:100a800000004000818048008502e900fcff3a0038
:100a900008003700f88f420002003c008000eb00a5
:100aa000000005008100d1000080d3008502e8002d
:100ab000fcff3a000300e00002003b006000100071
:100ac000e0801800000006000001be00440007009e
:100ad0000470a70003f0a10003f8a30013003a007c
:100ae0006509b10010003200090035006928e100f5
:100af0000200350001002800000005000000400051
:100b0000818048008502e900fcff3a0000000600f1
:100b1000f88f4200050035008100d1000080d3002d
:100b20008502e800fcff3a00000006008000eb00b0
:100b3000000005004f89de0082017800a400370024
:100b40006011b800b20037008100200061805500bc
:100b50000b003d000b00200061fe2f000100e100b2
:100b60001d00340082817100610164008904d1009c
:100b70000884d3000000e800faff3a00710020006a
:100b80006100640003007000020060000900320090
:100b900061044400e0844c000988a500050032008f
:100ba0008b05e8006808e10002003a008904d100e2
:100bb0000884d300f20f20000258e10005003d0038
:100bc000c75ddd00f907b200898075000800780074
:100bd000000006000bf827008b00780000000500dd
:100be000c70ade00f107b200f50fb20008003200bc
:100bf000e1cf4200020032000170a0002400050095
:100c0000810f700001003200040805004400050057
:100c1000810f700002003a00140005008502e9000f
:100c20000000400081c04800fcff3b000170a000b4
:100c3000240005000004be00e9ff07000003be0019
:100c40000405be000200be00e5ff0700844f7500ea
:100c5000000006000200be006450e10005003600fe
:100c60006420e100020036000968a30001003a0098
:100c70000800be000160a0004f0678004f05be00ce
:100c80004f04be0000000600f0ff2f00f1ff270018
:100c9000f9ff3700889fbe008a9fbe008c1f780036
:100ca000e4ff0700ebff330003866c006450e100b3
:100cb000240032006420e100270032006150e1008e
:100cc000220032006120e100210032008b854200c9
:100cd000eb07b1000134b800003ab8000804420044
:100ce00089844a00013ab8000030b800888040008a
:100cf00009014a00040033000000400081804800e0
:100d0000020149008b05e900c909dd00830170007b
:100d10000100320013002000c814de004814dd007a
:100d20004709de001200b200c808de000884700027
:100d300085ff070001f0a1000cf0a70001f0a00062
:100d4000cdff37006120e100cfff32000801be0077
:100d50000200be00f7ff37006150e100fcff3a00df
:100d6000c9ff3700889fbe008a9fbe00841f78009d
:100d7000b0ff07004f00780011003300f0ff2f0094
:100d8000838f6c0006003b00040565000a00a70085
:100d90000800370009f0a600100020000800370006
:100da000820f5400838f5c00030039001000200084
:100db00001003e000000200009f0a7000000ea004a
:100dc0004f05be004f04be000000e000000006001a
:100dd000881f7800030478000300e00007003d004e
:100de00060001000e080180060011900e081190027
:100df00002003b0001f02d00030037000400070053
:100e000008f0a70001f0a0004f04780000000600e1
:100e1000889fbe008a9fbe0000827000040271009d
:100e200004827100260032000004be000200be00f1
:100e30006011b8006b092000950220000182cf00ec
:100e40000a0039000541b1000082cf0007003900d7
:100e50000541b1000982cf00040039000541b1000d
:100e60000882cf00010039000541b100054252005f
:100e7000120032000a003b008281710061016400af
:100e80008100d1000080d3008984d3000884d3007e
:100e90008b05e8000442e800f7ff3a00070037003e
:100ea0000804440089844c00000048008180480008
:100eb0008b05e9000442e900f9ff3a0022ff070030
:0c0ec0004f05be004f04be0000000600fd
:020000040000fa
:100ecc000a00fa00881f7800ea06070027040700ca
:100edc00e105070027030700310307009d06070003
:100eec000b03070066060700010037000000000036
:100efc000000eb00000f7800060037002e060700fc
:100f0c00004f98006800470011002000780507008a
:100f1c001e0fe800540607009e0f5000f7ff3c0020
:100f2c00803e200001002000ed06070008060700a7
:100f3c00e14f5000edff3a000906070000060700dc
:100f4c00100798001e00900064004000100078000c
:100f5c008000eb00f7fe070032332300330524003a
:100f6c0049ff070002002000035824006cfe070014
:100f7c00d2cc2c00c304240043ff070020079800a8
:100f8c00310798002e019000be0190000000200057
:100f9c008120240062fe070002002000030a2400c6
:100fac0001fe070090898800a18988001e0090002e
:100fbc000080e800100078008000eb00ddfe0700e8
:100fcc0032332300330524002fff070002002000da
:100fdc000358240052fe0700d2cc2c00c30424007a
:100fec0029ff070020079800310798002e01900078
:100ffc00be019000000020008120240048fe070064
:10100c0002002000030a2400e7fd0700d0898800b5
:10101c00e18988001e009000100078008000eb0031
:10102c00c4fe0700323323003305240016ff0700eb
:10103c00020020000358240039fe0700d2cc2c00fb
:10104c00c304240010ff0700200798003107980004
:10105c002e019000be019000000020008120240091
:10106c002ffe070002002000030a2400cefd07001b
:10107c00f0898800018a88001e00900066004000fc
:10108c00100078008000eb00aafe0700323323002a
:10109c0033052400fcfe0700020020000358240046
:1010ac001ffe0700d2cc2c00c3042400f6fe070060
:1010bc0020079800310798002e019000be01900087
:1010cc00000020008120240015fe070002002000f3
:1010dc00030a2400b4fd0700108a8800218a8800c6
:1010ec001e00900068004000100078008000eb00ab
:1010fc0090fe07003233230033052400e2fe070084
:10110c00020020000358240005fe0700d2cc2c005e
:10111c00c3042400dcfe0700200798003107980068
:10112c002e019000be0190000000200081202400c0
:10113c00fbfd070002002000030a24009afd0700b3
:10114c00b0898800c189880090898000a1898000bd
:10115c0018c0b30002002000831c240032fe0700dc
:10116c000000e000010034000044eb000804e00043
:10117c000200320064cea8000100370064cea90042
:10118c00d0898000e189800018c0b30002002000e3
:10119c00831c240024fe07000000e0000100340042
:1011ac000044eb000804e0000200320064eea800ea
:1011bc000100370064eea900f0898000018a8000ec
:1011cc0018c0b30002002000831c240016fe070088
:1011dc000000e000010034000044eb000804e000d3
:1011ec0002003200254ea80041ff3700254ea90011
:1011fc003fff37000000fa001cd0bf000080fb004e
:10120c00cf80de00b200200003002000820f5000cf
:10121c00838f580060003e00000601000b00370071
:10122c00140037001d003700270037002800370056
:10123c0031003700320037003b0037003c003700ec
:10124c004600370047003700510037000c30ef00e4
:10125c000e30ef000041eb006000b8000a040700fc
:10126c0012c0b3006000b8000704070010c0b30040
:10127c001cf0b7006280800073808000803e2000ec
:10128c0001002000800f5100818f5900450036006d
:10129c0020c0b3001cf0b700430037000041eb0046
:1012ac0000002000011a2c00f703070012c0b30045
:1012bc0000002000011a2c00f303070030c0b3001b
:1012cc001cf0b70038003700390007003600370033
:1012dc000041eb0000002000011a2c00ea0307007b
:1012ec0012c0b3006000b800e703070050c0b300a1
:1012fc001cf0b7002c0037002d0007002a00370027
:10130c000041eb006000b800df03070012c0b3001f
:10131c0000002000011a2c00db03070070c0b30092
:10132c001cf0b70020003700210007001e0037001a
:10133c000041eb0000002000011a2c00d203070032
:10134c0012c0b30000002000011a2400ce030700d5
:10135c0090c0b3001cf0b700130037001400070056
:10136c00110037000041eb0000002000011a24009e
:10137c00c503070012c0b30000002000011a2c00a6
:10138c00c1030700b0c0b3001cf0b7000600370063
:10139c0007000700040037001c70ef00000000007d
:1013ac0001003700000000000080fa000000060079
:1013bc000200fa00881f78000040eb00004f780014
:1013cc0090898000a189800018c0b3000200200021
:1013dc00031f240094fd07000000e000010035000d
:1013ec000044eb000804e00019003200d0898000b2
:1013fc00e189800018c0b30002002000031a240009
:10140c008bfd07000000e00001003c000044eb00f5
:10141c000804e0000e003200f0898000018a800090
:10142c0018c0b30002002000031a240080fd07003e
:10143c000000e00001003c000044eb000804e00068
:10144c000300320020c0b300004f78006f0137005a
:10145c0090898000a189800018c0b3000200200090
:10146c00031a240072fd07000000e00001003c009c
:10147c000044eb000804e00019003200d089800021
:10148c00e189800018c0b30002002000031a240078
:10149c0067fd07000000e00001003c000044eb0089
:1014ac000804e0000e003200f0898000018a800000
:1014bc0018c0b30002002000031f24005afd0700cf
:1014cc000000e000010035000044eb000804e000df
:1014dc000300320010c0b300004f78004b013700fe
:1014ec00d0898000e189800018c0b3000200200080
:1014fc00031a24004cfd07000000e0000100350039
:10150c000044eb000804e0001900320090898000d0
:10151c00a189800018c0b30002002000031a240027
:10152c0041fd07000000e000010035000044eb0025
:10153c000804e0000e003200f0898000018a80006f
:10154c0018c0b30002002000031a240036fd070067
:10155c000000e000010035000044eb000804e0004e
:10156c000300320030c0b300004f78002701370071
:10157c00d0898000e189800018c0b30002002000ef
:10158c00031a240028fd07000000e00001003500cc
:10159c000044eb000804e000190032009089800040
:1015ac00a189800018c0b30002002000031a240097
:1015bc001dfd07000000e000010035000044eb00b9
:1015cc000804e0000e003200f0898000018a8000df
:1015dc0018c0b30002002000031a240014fd0700f9
:1015ec000000e00001003c000044eb000804e000b7
:1015fc000300320040c0b300004f780003013700f5
:10160c00d0898000e189800018c0b300020020005e
:10161c00031a240004fd07000000e000010035005f
:10162c000044eb000804e00019003200f08980004f
:10163c00018a800018c0b30002002000031a2400a5
:10164c00f9fc07000000e000010035000044eb004d
:10165c000804e0000e00320090898000a18980000f
:10166c0018c0b30002002000031a2400f0fc07008d
:10167c000000e00001003c000044eb000804e00026
:10168c000300320050c0b300004f7800df00370079
:10169c0090898000a189800018c0b300020020004e
:1016ac00031a2400e2fc07000000e00001003c00eb
:1016bc000044eb000804e00019003200d0898000df
:1016cc00e189800018c0b30002002000031a240036
:1016dc00d7fc07000000e00001003c000044eb00d8
:1016ec000804e0000e003200f0898000018a8000be
:1016fc0018c0b30002002000031a2400ccfc070021
:10170c000000e00001003c000044eb000804e00095
:10171c00030032000040eb00004f7800bb003700a4
:10172c0090898000a189800018c0b30002002000bd
:10173c00031a2400bcfc07000000e0000100350087
:10174c000044eb000804e00019003200d08980004e
:10175c00e189800018c0b30002002000031a2400a5
:10176c00b3fc07000000e00001003c000044eb006b
:10177c000804e0000e003200f0898000018a80002d
:10178c0018c0b30002002000031a2400a6fc0700b6
:10179c000000e000010035000044eb000804e0000c
:1017ac000300320060c0b300004f78009700370090
:1017bc0090898000a189800018c0b300020020002d
:1017cc00031a24009afc07000000e00001003c0012
:1017dc000044eb000804e00019003200d0898000be
:1017ec00e189800018c0b30002002000031a240015
:1017fc008dfc07000000e000010035000044eb0008
:10180c000804e0000e003200f0898000018a80009c
:10181c0018c0b30002002000031a240084fc070047
:10182c000000e00001003c000044eb000804e00074
:10183c000300320060c0b300004f78007300370023
:10184c00b0898000c189800018c0b300020020005c
:10185c00031a240074fc07000000e00001003500ae
:10186c000044eb000804e0002f0032009089800057
:10187c00a189800018c0b30002002000031a2400c4
:10188c006bfc07000000e00001003c000044eb0092
:10189c000804e00024003200d0898000e189800037
:1018ac0018c0b30002002000031a240060fc0700db
:1018bc000000e00001003c000044eb000804e000e4
:1018cc0019003200f0898000018a800018c0b30032
:1018dc0002002000031a240055fc07000000e00061
:1018ec0001003c000044eb000804e0000e00320054
:1018fc00108a8000218a800018c0b30002002000ea
:10190c00031a24004afc07000000e00001003c0020
:10191c000044eb000804e0000300320080c0b30078
:10192c00004f780039003700b0898000c1898000f1
:10193c0018c0b30002002000031a24003cfc07006e
:10194c000000e00001003c000044eb000804e00053
:10195c002e00320090898000a189800018c0b3004d
:10196c0002002000031a240031fc07000000e000f4
:10197c0001003c000044eb000804e00023003200ae
:10198c00d0898000e189800018c0b30002002000db
:10199c00031a240026fc07000000e00001003c00b4
:1019ac000044eb000804e00018003200f0898000cd
:1019bc00018a800018c0b30002002000031a240022
:1019cc001bfc07000000e00001003c000044eb00a1
:1019dc000804e0000d003200108a8000218a80008b
:1019ec0018c0b30002002000031a24000efc0700ec
:1019fc000000e000010035000044eb000804e000aa
:101a0c000200320070c0b300004f78001e40780016
:101a1c000004e00003003a0020c0b3001df0b70042
:101a2c002f0037001e407800e24f500003003a00b0
:101a3c0040c0b3001df0b700290037001e407800ed
:101a4c00e14f500003003a0060c0b3001df0b70036
:101a5c00230037001e407800e34f500003003a008b
:101a6c00a0c0b3001df0b7001d0037001e40780069
:101a7c00e44f500003003a0080c0b3001df0b700e3
:101a8c00170037001e407800e54f500003003a0065
:101a9c00a0c0b3001df0b700110037001e40780045
:101aac00e64f500003003a0080c0b3001df0b700b1
:101abc000b0037001e407800e84f500003003a003e
:101acc0080c0b3001df0b700050037001e40780041
:101adc00e74f500002003a00a0c0b3001df0b70061
:101aec001dd0bf008080fb001cd0bf000080fb001d
:101afc000000e900808f5000020032001dd0bf00b2
:101b0c001cf0b7004f0478000080fa0000000600bb
:101b1c000000fa0013e1a90011e1a9001061a8006e
:101b2c001021a90081088000f0fc2f0000806000cb
:101b3c00800888000a21ef000621ef0020262000f3
:101b4c007008880000a025006008880021428000f1
:101b5c0080ff2f00008060000000a0002042880061
:101b6c000108a9002108a80011e1a8000080fa00d2
:101b7c00000006000000fa0005e1a9000421a900fc
:101b8c000000200081242400100007000068a90038
:101b9c002068a80005e1a8000080fa0000000600fb
:101bac000000fa001fe1a9001e21a900000020007e
:101bbc00a14f2400790007000368a9002368a8003e
:101bcc001fe1a8000080fa00000006000400fa00e3
:101bdc00881f7800008fbe0021088000f0fc2f00c9
:101bec0000806000200888001e0178009e01900093
:101bfc000068290081c1240049fb070018c0b3000c
:101c0c0002f02f00f377240089fb07000000e000ae
:101c1c0001003c000044eb000804e00054003200da
:101c2c0021088000f0fc2f00008060000040a00024
:101c3c00200888001e0178009e0190000068290091
:101c4c0081c1240036fb0700020020000310240091
:101c5c0033fb070018c0b30002f02f00f377240009
:101c6c0073fb07000000e00001003c000044eb00a7
:101c7c000804e0003200320021088000f0fc2f0044
:101c8c00008060000050a000200888001e01780031
:101c9c009e0190000068290081c1240020fb0700f0
:101cac0002002000032824001dfb070018c0b3000d
:101cbc0002f02f00f37724005dfb07000000e0002a
:101ccc0001003c000044eb000804e000100032006e
:101cdc00210880000003200001007000200888000b
:101cec001e0178009e0190000068290081c124002b
:101cfc000bfb0700020020000338240008fb070040
:101d0c004dfb070000007800100888002000370009
:101d1c001e0178009e0190000068290081c12400fa
:101d2c00fffa07000200200003282400fcfa070039
:101d3c0041fb0700000078001008880014003700f1
:101d4c001e0178009e0190000068290081c12400ca
:101d5c00f3fa07000200200003102400f0fa070039
:101d6c0035fb0700000078001008880008003700d9
:101d7c001e0178009e0190000068290081c124009a
:101d8c00e7fa07002cfb0700000078001008880019
:101d9c004f0478000080fa00000006000400fa00ee
:101dac00881f7800008fbe00f1088000f0fc2f0027
:101dbc0000806000f00888001e0178009e019000f1
:101dcc000068290081c12400d5fa070018c0b300af
:101ddc0002f02f00f377240015fb07000000e00051
:101dec0001003c000044eb000804e0005400320009
:101dfc0021088000f0fc2f00008060000040a00053
:101e0c00200888001e0178009e01900000682900bf
:101e1c0081c12400c2fa0700020020000310240034
:101e2c00bffa070018c0b30002f02f00f3772400ac
:101e3c00fffa07000000e00001003c000044eb004a
:101e4c000804e0003200320021088000f0fc2f0072
:101e5c00008060000050a000200888001e0178005f
:101e6c009e0190000068290081c12400acfa070093
:101e7c000200200003282400a9fa070018c0b300b0
:101e8c0002f02f00f3772400e9fa07000000e000cd
:101e9c0001003c000044eb000804e000100032009c
:101eac002108800000032000010070002008880039
:101ebc001e0178009e0190000068290081c1240059
:101ecc0097fa0700020020000338240094fa070058
:101edc00d9fa0700000078001008880020003700ad
:101eec001e0178009e0190000068290081c1240029
:101efc008bfa0700020020000328240088fa070050
:101f0c00cdfa070000007800100888001400370094
:101f1c001e0178009e0190000068290081c12400f8
:101f2c007ffa070002002000031024007cfa07004f
:101f3c00c1fa07000000780010088800080037007c
:101f4c001e0178009e0190000068290081c12400c8
:101f5c0073fa0700b8fa0700000078001008880030
:101f6c004f0478000080fa00000006000000fa0020
:101f7c001160800080ff2f000080600010608800de
:101f8c0000fa20002060880023aca800238ca80055
:101f9c0011618000f03f2f000080600000a0a000c5
:101fac00106188003000200020618800c3aca800bc
:101fbc00c38ca80011668000f03f2f0000806000e9
:101fcc0000a0a00010668800300020002066880069
:101fdc0001eca8000080fa00000006000000fa00e6
:101fec00889fbe008a9fbe0074898000858980000e
:101ffc00508980006189800018c0b3000001be00c8
:10200c000400be0088fa07000000e0000100350063
:10201c000044eb000804e0000f00320058898000f7
:10202c00698980007a8980008b8980001ed0bf006e
:10203c000080fb00cf80de00bbfa07000001be0071
:10204c000a00be00d9f907000801be00cf00070046
:10205c007089880081898800748980008589800056
:10206c00508980006189800018c0b3000001be0057
:10207c000400be006efa07000000e00001003c0006
:10208c000044eb000804e0000f0032005889800087
:10209c00698980007a8980008b8980001ed0bf00fe
:1020ac000080fb00cf80de009ffa07000001be001d
:1020bc000a00be00bcf907000801be009b00070027
:1020cc0070898800818988007089800081898000ee
:1020dc0018c0b3006011b80055fa07000000e0000a
:1020ec0001003c000044eb000804e0000400320056
:1020fc00c3cca90024eea800c3eca8000300370051
:10210c00c3eca90024cea800c3cca8007089800021
:10211c00818980006f000700020020000322240048
:10212c00d9fa070065fa07000000780030668800cd
:10213c0034898000458980001089800021898000c5
:10214c0018c0b3000001be000400be0036fa070040
:10215c000000e000010035000044eb000804e00042
:10216c000f00320018898000298980003a8980008c
:10217c004b8980001ed0bf000080fb00cf80de00aa
:10218c0069fa07000001be000a00be0087f90700cb
:10219c000801be007d000700308988004189880055
:1021ac003489800045898000108980002189800055
:1021bc0018c0b3000001be000400be001cfa0700ea
:1021cc000000e00001003c000044eb000804e000cb
:1021dc000f00320018898000298980003a8980001c
:1021ec004b8980001ed0bf000080fb00cf80de003a
:1021fc004dfa07000001be000a00be006af9070094
:10220c000801be0049000700308988004189880018
:10221c00308980004189800018c0b3006011b8007b
:10222c0003fa07000000e00001003c000044eb0052
:10223c000804e0000400320023cca90015eea8002d
:10224c0023eca8000300370023eca90015cea8004e
:10225c0023cca80030898000418980001d00070034
:10226c00020020000322240087fa070013fa07005b
:10227c0000007800306188004f05be004f04be009e
:10228c000080fa00000006000600fa00008fbe0075
:10229c00424798004e4090000004e00006003a00cf
:1022ac001e0078009e00900001f0a200508988006a
:1022bc0061898800050037001e0078009e009000a0
:1022cc0001f0a20010898800218988000080fa00a2
:1022dc00000006000400fa00881f7800008fbe0082
:1022ec0018c0b3006011b8001e0078009e0090006a
:1022fc00cff907000000e00001003d000044eb00b6
:10230c000804e000030032001e0078009e009000dc
:10231c00030037001e0078009e00900001f0a20020
:10232c004f0478000080fa00000006000800fa0054
:10233c00881f7800008fbe00220798003307980092
:10234c0018c0b3002e019000be0190001e00780052
:10235c009e009000b6f907000000e00001003c0070
:10236c000044eb000804e000030032001e0078007b
:10237c009e009000020037002e009000be009000de
:10238c004f0478000080fa00000006000800fa00f4
:10239c00881f7800008fbe00220798003307980032
:1023ac0018c0b3002e019000be0190001e007800f2
:1023bc009e0090009cf907000000e0000100350031
:1023cc000044eb000804e000030032001e0078001b
:1023dc009e009000020037002e009000be0090007e
:1023ec004f0478000080fa00000006000c00fa0090
:1023fc00881f7800008fbe002207980033079800d2
:10240c00440798005507980018c0b3004e0190007f
:10241c00de0190001e0078009e00900084f90700f9
:10242c000000e00001003c000044eb000804e00068
:10243c00040032004e019000de019000028fbe00bd
:10244c000e00370018c0b3002e019000be019000a2
:10245c001e0078009e00900073f907000000e00059
:10246c00010035000044eb000804e00003003200da
:10247c002e019000be019000028fbe001e0078005d
:10248c009e0090004f0478000080fa0000000600c7
:10249c000400fa00008fbe00b2fd2000930424005b
:1024ac001e0078009e0090001df90700020020001d
:1024bc0043332400f4f907000080fa000000060002
:1024cc000400fa00008fbe00b2fd2000930424002b
:1024dc001e0078009e009000ebf90700020020001f
:1024ec00433324000ef907000080fa0000000600b8
:1024fc000600fa0010079800210798000040eb0036
:10250c00004f780041000700ae009000810f500092
:10251c00110034000040eb00004f7800060037003b
:10252c001e80fb009e009000008040001040780050
:10253c000b0007001e4fe8009e80fb002e00900051
:10254c00808f5000f6ff35002c0007000004e000df
:10255c0001003a00200007000080fa00000006008d
:10256c000200fa00004f78009080800001022100e8
:10257c00808040009e4878000000e8009080880031
:10258c009180800000082000808f500001003a00ec
:10259c001230ef000080fa00000006000200fa0082
:1025ac00a08080000102210080804000114f780043
:1025bc000000e800a0808800a180800000082000b6
:1025cc00808f500001003a001430ef001e4078005c
:1025dc000080fa00000006000200fa0010c0b300f0
:1025ec0016f0b700edff0700004f78001e80fb00cf
:1025fc00201188000080fa00000006000000fa009c
:10260c0016d0bf000080fa00000006000200fa009d
:10261c00a180800090808000808f500006003d00db
:10262c0091808000a0808000008050000108200074
:10263c00010f400005003700a180800090808000d1
:10264c000080500001082000010f40001e0078009f
:10265c000080fa00000006000000fa0021e3a90047
:10266c002143a80001198000f0cf2f0000806000ea
:10267c00001988002043a90001198000000e2000d9
:10268c00010070000019880011198000f0ff210072
:10269c0000806000101988002343a80011198000e5
:1026ac00f0cf2f00008060001019880011198000f5
:1026bc0030f82f00008060004001b3001019880032
:1026cc002203a9002223a90025e3a900f0c0b3002e
:1026dc0024e3b70021198000f00f2e0080806000e9
:1026ec0000f0200001007000201988003303a900bd
:1026fc002e0ea8002f6ea8006f2ea80030c3a800c5
:10270c003163a8002e03a8004119800000fc2f00a3
:10271c00008060004019880028e3a90001a8a900e6
:10272c0021a8a80021e3a8000080fa000000060000
:10273c000000fa002023a8000080fa000000060028
:10274c000000fa00200021000080fa0000000600c2
:10275c000000fa000ad0bf000080fa00000006005a
:10276c000000fa000a70ef000080fa00000006007a
:10277c000200fa00004f7800280007000000e0007b
:10278c000b003400c0808000010a210080804000d2
:10279c009e4878000000e800c0808800c18080005e
:1027ac0000082000808f500001003a001830ef0024
:1027bc000080fa00000006000200fa00d0808000c1
:1027cc00010a210080804000114f78000000e800d1
:1027dc00d0808800d180800000082000808f5000bd
:1027ec0001003a001a30ef001e4078000080fa0019
:1027fc00000006000000fa00c1808000d08080003c
:10280c00808f50000200320010c0b300010037006e
:10281c000040eb000080fa00000006000200fa0005
:10282c00c1808000d0808000808f50000600340072
:10283c00d1808000c0808000008050000108200002
:10284c00010f400005003700c1808000d08080005f
:10285c000080500001082000010f40001e0078008d
:10286c000080fa00000006000000fa00ebff0700f1
:10287c0001082000008050000080fa0000000600d3
:10288c000000fa002002a9000111800090ff2f0027
:10289c00008060000011880020a2a9002062a8001e
:1028ac00500520004011880023a2a80023e2a900b3
:1028bc000188a9002188a90011118000f0f32f00d4
:1028cc00008060000060a000101188000168a90061
:1028dc002168a90021e2a8002342a8000080fa0088
:1028ec00000006000600fa00100798002107980067
:1028fc000040eb00004f78000040eb00004f7800e8
:10290c000e00370000000000111180000020200094
:10291c00008060000000e000fbff3a001e00900009
:10292c00104078000080fb00201188001e009000f1
:10293c000000e800100798001e4fe8009e80fb0086
:10294c002e009000808f5000eeff35000080fa00c2
:10295c00000006000000fa00f0032000303a880066
:10296c00213a8000f0f32f0000806000203a8800ac
:10297c00213a800000fe2f00008060000000a000c3
:10298c00203a88001200200080072000a1092000b6
:10299c00337420008049780081497800824978009e
:1029ac00103a8000000178000200a00060042000b2
:1029bc00710520002374200080497800814978003b
:1029cc008249780000000000113a800000002700c6
:1029dc008080600000002100808f5000faff3a00d8
:1029ec0000000000113a800000022000008060000e
:1029fc000000e000fbff32000080fa00000006003f
:020000040000fa
:102a0c001c10000002000000800000000c100000f0
:102a1c0006000000800000002011000026000000cd
:102a2c00800000001e100000020000008200000068
:102a3c00ba000000001000000c0000008000000034
:102a4c002010000080000000800000001210000028
:102a5c000600000080000000a010000080000000b4
:102a6c00800000001810000004000000800000002e
:042a7c000000000056
:020000040000fa
:102a80000000fa000e2eef001e2eef002e2eef009b
:102a90003e2eef004e2eef005e2eef006e2eef006a
:102aa000214ea90060cea90060eea90011cea900b8
:102ab00011eea90020cea90020eea9002136800049
:102ac00000f82f00008060008001b30020368800ed
:102ad0001134800000fc2f00008060000000a00086
:0c2ae000103488000080fa00000006009e
:020000040000fa
:102aec00f03fb1000180b10006003500ee03090093
:102afc0000000000403fb1000180b100fbff3d0031
:102b0c001000b000203fb00002003500008009002a
:082b1c000000000000000600ab
:020000040000fa
:02000004000af0
:04afe000cfff00009f
:020000040000fa
:02000004000af0
:04afe400ffff00006b
:020000040000fa
:02000004000af0
:04afe8007fff0000e7
:020000040000fa
:02000004000af0
:04afec005fff000003
:020000040000fa
:02000004000af0
:04aff00038ff000026
:020000040000fa
:02000004000af0
:04aff400ffff00005b
:00000001FF
